{
  "contracts/Distribute.sol": {
    "Distribute": {
      "abi": [
        {
          "inputs": [
            {
              "internalType": "address",
              "name": "_usdb_contract",
              "type": "address"
            },
            {
              "internalType": "address",
              "name": "_weth_contract",
              "type": "address"
            },
            {
              "internalType": "uint256",
              "name": "_eth_total",
              "type": "uint256"
            },
            {
              "internalType": "uint256",
              "name": "_usdb_total",
              "type": "uint256"
            },
            {
              "internalType": "uint256",
              "name": "_weth_total",
              "type": "uint256"
            },
            {
              "internalType": "address",
              "name": "_lock_contract",
              "type": "address"
            }
          ],
          "stateMutability": "nonpayable",
          "type": "constructor"
        },
        {
          "inputs": [
            {
              "internalType": "address",
              "name": "owner",
              "type": "address"
            }
          ],
          "name": "OwnableInvalidOwner",
          "type": "error"
        },
        {
          "inputs": [
            {
              "internalType": "address",
              "name": "account",
              "type": "address"
            }
          ],
          "name": "OwnableUnauthorizedAccount",
          "type": "error"
        },
        {
          "anonymous": false,
          "inputs": [
            {
              "indexed": true,
              "internalType": "address",
              "name": "account",
              "type": "address"
            },
            {
              "indexed": false,
              "internalType": "enum IDistribute.TokenType",
              "name": "token_type",
              "type": "uint8"
            },
            {
              "indexed": false,
              "internalType": "uint256",
              "name": "quantity",
              "type": "uint256"
            }
          ],
          "name": "Distributed",
          "type": "event"
        },
        {
          "anonymous": false,
          "inputs": [
            {
              "indexed": false,
              "internalType": "address",
              "name": "depositor",
              "type": "address"
            },
            {
              "indexed": false,
              "internalType": "address",
              "name": "distributor",
              "type": "address"
            }
          ],
          "name": "Funded",
          "type": "event"
        },
        {
          "anonymous": false,
          "inputs": [
            {
              "indexed": true,
              "internalType": "address",
              "name": "previousOwner",
              "type": "address"
            },
            {
              "indexed": true,
              "internalType": "address",
              "name": "newOwner",
              "type": "address"
            }
          ],
          "name": "OwnershipTransferred",
          "type": "event"
        },
        {
          "anonymous": false,
          "inputs": [
            {
              "indexed": false,
              "internalType": "address",
              "name": "account",
              "type": "address"
            },
            {
              "indexed": false,
              "internalType": "enum IDistribute.TokenType",
              "name": "token",
              "type": "uint8"
            },
            {
              "indexed": false,
              "internalType": "uint256",
              "name": "quantity",
              "type": "uint256"
            }
          ],
          "name": "Populated",
          "type": "event"
        },
        {
          "anonymous": false,
          "inputs": [],
          "name": "Sealed",
          "type": "event"
        },
        {
          "inputs": [],
          "name": "LOCK_CONTRACT",
          "outputs": [
            {
              "internalType": "address",
              "name": "",
              "type": "address"
            }
          ],
          "stateMutability": "view",
          "type": "function"
        },
        {
          "inputs": [],
          "name": "USDB_CONTRACT",
          "outputs": [
            {
              "internalType": "address",
              "name": "",
              "type": "address"
            }
          ],
          "stateMutability": "view",
          "type": "function"
        },
        {
          "inputs": [],
          "name": "WETH_CONTRACT",
          "outputs": [
            {
              "internalType": "address",
              "name": "",
              "type": "address"
            }
          ],
          "stateMutability": "view",
          "type": "function"
        },
        {
          "inputs": [],
          "name": "depositor",
          "outputs": [
            {
              "internalType": "address",
              "name": "",
              "type": "address"
            }
          ],
          "stateMutability": "view",
          "type": "function"
        },
        {
          "inputs": [
            {
              "internalType": "uint256",
              "name": "_start",
              "type": "uint256"
            },
            {
              "internalType": "uint256",
              "name": "_count",
              "type": "uint256"
            }
          ],
          "name": "distribute",
          "outputs": [],
          "stateMutability": "nonpayable",
          "type": "function"
        },
        {
          "inputs": [],
          "name": "distribute_stage",
          "outputs": [
            {
              "internalType": "enum IDistribute.DistributeStage",
              "name": "",
              "type": "uint8"
            }
          ],
          "stateMutability": "view",
          "type": "function"
        },
        {
          "inputs": [],
          "name": "distribute_totals",
          "outputs": [
            {
              "internalType": "uint256",
              "name": "eth",
              "type": "uint256"
            },
            {
              "internalType": "uint256",
              "name": "usdb",
              "type": "uint256"
            },
            {
              "internalType": "uint256",
              "name": "weth",
              "type": "uint256"
            }
          ],
          "stateMutability": "view",
          "type": "function"
        },
        {
          "inputs": [],
          "name": "distributor",
          "outputs": [
            {
              "internalType": "address",
              "name": "",
              "type": "address"
            }
          ],
          "stateMutability": "view",
          "type": "function"
        },
        {
          "inputs": [
            {
              "internalType": "address",
              "name": "_distributor",
              "type": "address"
            }
          ],
          "name": "fund",
          "outputs": [],
          "stateMutability": "payable",
          "type": "function"
        },
        {
          "inputs": [
            {
              "internalType": "uint256",
              "name": "_start_index",
              "type": "uint256"
            }
          ],
          "name": "getAccountList",
          "outputs": [
            {
              "internalType": "address[50]",
              "name": "_accounts",
              "type": "address[50]"
            }
          ],
          "stateMutability": "view",
          "type": "function"
        },
        {
          "inputs": [
            {
              "internalType": "address",
              "name": "_account",
              "type": "address"
            }
          ],
          "name": "getDistributeData",
          "outputs": [
            {
              "components": [
                {
                  "internalType": "enum IDistribute.TokenType",
                  "name": "token_type",
                  "type": "uint8"
                },
                {
                  "internalType": "uint256",
                  "name": "quantity",
                  "type": "uint256"
                },
                {
                  "internalType": "bool",
                  "name": "distributed",
                  "type": "bool"
                }
              ],
              "internalType": "struct IDistribute.DistributeData",
              "name": "_distribute_data",
              "type": "tuple"
            }
          ],
          "stateMutability": "view",
          "type": "function"
        },
        {
          "inputs": [],
          "name": "owner",
          "outputs": [
            {
              "internalType": "address",
              "name": "",
              "type": "address"
            }
          ],
          "stateMutability": "view",
          "type": "function"
        },
        {
          "inputs": [
            {
              "internalType": "address[]",
              "name": "_accounts",
              "type": "address[]"
            },
            {
              "internalType": "enum IDistribute.TokenType[]",
              "name": "_tokens",
              "type": "uint8[]"
            },
            {
              "internalType": "uint256[]",
              "name": "_quantities",
              "type": "uint256[]"
            }
          ],
          "name": "populate",
          "outputs": [],
          "stateMutability": "nonpayable",
          "type": "function"
        },
        {
          "inputs": [],
          "name": "populate_totals",
          "outputs": [
            {
              "internalType": "uint256",
              "name": "eth",
              "type": "uint256"
            },
            {
              "internalType": "uint256",
              "name": "usdb",
              "type": "uint256"
            },
            {
              "internalType": "uint256",
              "name": "weth",
              "type": "uint256"
            }
          ],
          "stateMutability": "view",
          "type": "function"
        },
        {
          "inputs": [],
          "name": "renounceOwnership",
          "outputs": [],
          "stateMutability": "nonpayable",
          "type": "function"
        },
        {
          "inputs": [],
          "name": "rescue",
          "outputs": [],
          "stateMutability": "nonpayable",
          "type": "function"
        },
        {
          "inputs": [],
          "name": "seal",
          "outputs": [],
          "stateMutability": "nonpayable",
          "type": "function"
        },
        {
          "inputs": [],
          "name": "sent_totals",
          "outputs": [
            {
              "internalType": "uint256",
              "name": "eth",
              "type": "uint256"
            },
            {
              "internalType": "uint256",
              "name": "usdb",
              "type": "uint256"
            },
            {
              "internalType": "uint256",
              "name": "weth",
              "type": "uint256"
            }
          ],
          "stateMutability": "view",
          "type": "function"
        },
        {
          "inputs": [
            {
              "internalType": "address",
              "name": "newOwner",
              "type": "address"
            }
          ],
          "name": "transferOwnership",
          "outputs": [],
          "stateMutability": "nonpayable",
          "type": "function"
        }
      ],
      "evm": {
        "bytecode": {
          "linkReferences": {},
          "object": "6080346200016457601f620015e338819003918201601f19168301916001600160401b03831184841017620001695780849260c09460405283398101031262000164576200004d816200017f565b906200005c602082016200017f565b916040820151906060830151936200007c60a0608086015195016200017f565b9133156200014b5760008054336001600160a01b0319808316821784556040519990986001600160a01b03989094919390929089167f8be0079c531659141344cd1fd0a4f28419497f9722a3daafe3b4186f6b6457e08380a3600c549060ff821660048110156200013757620001345750918795949291600187959360ff191617600c556003556004556005551685600e541617600e551683600f541617600f551690601054161760105561144e9081620001958239f35b80fd5b634e487b7160e01b82526021600452602482fd5b604051631e4fbdf760e01b815260006004820152602490fd5b600080fd5b634e487b7160e01b600052604160045260246000fd5b51906001600160a01b0382168203620001645756fe608080604052600436101561001357600080fd5b60003560e01c9081627948b41461110d5750806308fb5adf146110db5780630ed62b7d1461103257806318830f55146110095780631fbe197914610d6f5780632302440814610b9d578063337bf88114610b6b5780633f31f2a81461081d5780633fb27b851461068a57806361fe9ab814610658578063715018a6146106355780637625391a1461027f57806378a3b823146102565780637cba94e91461022d5780638da5cb5b14610204578063bfe10928146101db578063c7c4ff46146101ae578063d1d3f22c146101845763f2fde38b146100ef57600080fd5b3461017f57602036600319011261017f576004356001600160a01b038181169182900361017f5761011e61138c565b811561016657600054826bffffffffffffffffffffffff60a01b821617600055167f8be0079c531659141344cd1fd0a4f28419497f9722a3daafe3b4186f6b6457e0600080a3005b604051631e4fbdf760e01b815260006004820152602490fd5b600080fd5b3461017f57600036600319011261017f57602060ff600c5416604051906101aa81611219565b8152f35b3461017f57600036600319011261017f57600c5460405160089190911c6001600160a01b03168152602090f35b3461017f57600036600319011261017f57600d546040516001600160a01b039091168152602090f35b3461017f57600036600319011261017f576000546040516001600160a01b039091168152602090f35b3461017f57600036600319011261017f57600e546040516001600160a01b039091168152602090f35b3461017f57600036600319011261017f57600f546040516001600160a01b039091168152602090f35b3461017f57604036600319011261017f57602435600360ff600c54166102a481611219565b0361017f57600d546001600160a01b031633036105e157600e54600f546001546001600160a01b0392831692909116906102e0846004356112c5565b60001981019081116105b55781106105cb575b5091805b6102fd57005b610309816004356112c5565b60001981019081116105b55761031e906112d2565b60018060a01b0391549060031b1c168060005260026020526040600020604051906103488261126a565b60ff6002818354169261035a84611219565b838552600181015460208601520154161580156040840152610384575b50505060001901806102f7565b80610390600192611219565b61039981611219565b0361043a576000808080602085015186828215610431575bf1156104255760408160206000805160206113f98339815191529301516103db60099182546112c5565b90555b83600052600260205260028260002001600160ff19825416179055602081519161040783611219565b015182519161041581611219565b82526020820152a2838080610377565b6040513d6000823e3d90fd5b506108fc6103b1565b6002815161044781611219565b61045081611219565b036104f25760208181015160405163a9059cbb60e01b81526001600160a01b038516600482015260248101919091529190826044816000895af1908115610425576000805160206113f9833981519152926040926104c3575b5060208101516104bc600a9182546112c5565b90556103de565b6104e49060203d6020116104eb575b6104dc81836112a3565b81019061131f565b50876104a9565b503d6104d2565b600381516104ff81611219565b61050881611219565b14610525575b60406000805160206113f9833981519152916103de565b60208181015160405163a9059cbb60e01b81526001600160a01b0385166004820152602481019190915291908260448160008a5af1908115610425576000805160206113f983398151915292604092610596575b50602081015161058c600b9182546112c5565b905591505061050e565b6105ae9060203d6020116104eb576104dc81836112a3565b5087610579565b634e487b7160e01b600052601160045260246000fd5b90925060043581039081116105b55791836102f3565b60405162461bcd60e51b815260206004820152602660248201527f4f6e6c79206469737472696275746f722063616e2063616c6c2064697374726960448201526562757465282960d01b6064820152608490fd5b3461017f57600036600319011261017f5761064e61138c565b6106566113b8565b005b3461017f57600036600319011261017f5760035460045460055460408051938452602084019290925290820152606090f35b3461017f57600036600319011261017f57600c54600160ff82166106ad81611219565b0361017f576106ba61138c565b600354600654036107c85760045460075403610772576005546008540361071c5760ff1916600217600c556106ed61138c565b6106f56113b8565b7f1b2d71eb44f882534bf4e86f940c56ccc869ffb927e2bab86561de93950c2216600080a1005b60405162461bcd60e51b815260206004820152602860248201527f5745544820706f70756c61746520746f74616c7320646f206e6f74206d6174636044820152671a081d185c99d95d60c21b6064820152608490fd5b60405162461bcd60e51b815260206004820152602860248201527f5553444220706f70756c61746520746f74616c7320646f206e6f74206d6174636044820152671a081d185c99d95d60c21b6064820152608490fd5b60405162461bcd60e51b815260206004820152602760248201527f45544820706f70756c61746520746f74616c7320646f206e6f74206d61746368604482015266081d185c99d95d60ca1b6064820152608490fd5b3461017f57606036600319011261017f5767ffffffffffffffff60043581811161017f5761084f903690600401611239565b9160243581811161017f57610868903690600401611239565b909160443590811161017f57610882903690600401611239565b939091600160ff600c541661089681611219565b0361017f576108a361138c565b6108ae818714611337565b6108b9858214611337565b60005b61ffff811687811015610656576108d481898661137c565b356001600160a01b038116810361017f576108f082858961137c565b3591600483101561017f5761090690898861137c565b359061091183611219565b82151580610b57575b15610b1d578115610ae55760018060a01b03811660005260028060205260ff6040600020541661094981611219565b15610968575b5050505061ffff8091169081146105b5576001016108bc565b61097184611219565b60018403610aa35760066109868482546112c5565b90555b604051906109968261126a565b61099f85611219565b84825260ff602083019185835260408401936000855260018060a01b0386166000528160205260406000209051936109d685611219565b6109df85611219565b8319948486845416911617825551600182015501925115159183541691161790556001549168010000000000000000831015610a8d577f184dbe1c732d6d725f0556c3c6de11e5d2f340c58a4f4b94214a1646614a8b2993610a49846001606096016001556112d2565b81546001600160a01b0395861660039290921b82811b96901b1916949094179055604051928352610a7981611219565b60208301526040820152a18780808061094f565b634e487b7160e01b600052604160045260246000fd5b610aac84611219565b838103610ac7576007610ac08482546112c5565b9055610989565b610ad084611219565b60038403610989576008610ac08482546112c5565b60405162461bcd60e51b815260206004820152601060248201526f496e76616c6964207175616e7469747960801b6044820152606490fd5b60405162461bcd60e51b8152602060048201526012602482015271496e76616c696420746f6b656e207479706560701b6044820152606490fd5b50610b6183611219565b600383111561091a565b3461017f57600036600319011261017f5760065460075460085460408051938452602084019290925290820152606090f35b60208060031936011261017f576004356001600160a01b03818116929183900361017f57600260ff600c5416610bd281611219565b0361017f5734151580610d64575b15610d2957600e54600f546007546040516323b872dd60e01b808252336004830152306024830152604482019290925295929184169185908790606490829060009089165af191821561042557610c66968693610d0c575b5060085460405192835233600484015230602484015260448301529095869190829060009082906064820190565b03925af1928315610425577fae4ccaaebafd7429d917375073665c7b5f76b6fd002ac9bba803bb7293e6d12d94604094610cef575b506003600c54610100600160a81b033360081b16906affffffffffffffffffffff60a81b1617179283600c55826bffffffffffffffffffffffff60a01b600d541617600d5584519360081c168352820152a1005b610d0590823d84116104eb576104dc81836112a3565b5085610c9b565b610d2290843d86116104eb576104dc81836112a3565b5087610c38565b60405162461bcd60e51b8152600481018390526013602482015272115512081d1bdd185b081a5b98dbdc9c9958dd606a1b6044820152606490fd5b506006543414610be0565b3461017f57600036600319011261017f57600c54600360ff8216610d9281611219565b0361017f576001600160a01b039060081c81168015610fcd57803303610f8857600e54600f546040516370a0823160e01b808252306004830152602095928316949293841691478782602481875afa91821561042557600092610f59575b5060405192835230600484015287836024818a5afa948515610425578893600096610f28575b5081158015610efd575b50505080610e91575b50505080610e3357005b600c5460405163a9059cbb60e01b815260089190911c929092166001600160a01b031660048301526024820152908290829060449082906000905af1801561042557610e7b57005b8161065692903d106104eb576104dc81836112a3565b600c5460405163a9059cbb60e01b815260089190911c86166001600160a01b031660048201526024810191909152918290816000816044810103925af1801561042557610ee0575b8481610e29565b610ef690853d87116104eb576104dc81836112a3565b5084610ed9565b60009394508392839283928390610f1f575bf115610425578590878080610e20565b506108fc610f0f565b8481959297503d8311610f52575b610f4081836112a3565b8101031261017f578792519489610e16565b503d610f36565b9091508781813d8311610f81575b610f7181836112a3565b8101031261017f57519088610df0565b503d610f67565b60405162461bcd60e51b815260206004820152601960248201527f4f6e6c79206465706f7369746f722063616e20726573637565000000000000006044820152606490fd5b60405162461bcd60e51b815260206004820152601460248201527311195c1bdcda5d081b9bdd081cd95b9d081e595d60621b6044820152606490fd5b3461017f57600036600319011261017f576010546040516001600160a01b039091168152602090f35b3461017f57602036600319011261017f576004356001600160a01b0381169081900361017f576000604080516110678161126a565b828152826020820152015260005260026020526060604060002060405161108d8161126a565b60ff8254169161109c83611219565b828252604060ff60026001840154936020860194855201541692019115158252604051926110c981611219565b83525160208301525115156040820152f35b3461017f57600036600319011261017f57600954600a54600b5460408051938452602084019290925290820152606090f35b3461017f5760208060031936011261017f5760043561112b83611286565b6106408093369037600190600154818111156111de576040519161114e83611286565b853684378360005b60328110611194575b5050505060405192836000905b60328210611178578686f35b83516001600160a01b031681529282019290840190820161116c565b61119e81846112c5565b8411156111d9576111b76111b282856112c5565b6112d2565b905460039190911b1c6001600160a01b0316600582901b860152859101611156565b61115f565b60405162461bcd60e51b8152602060048201526013602482015272092dcecc2d8d2c840e6e8c2e4e840d2dcc8caf606b1b6044820152606490fd5b6004111561122357565b634e487b7160e01b600052602160045260246000fd5b9181601f8401121561017f5782359167ffffffffffffffff831161017f576020808501948460051b01011161017f57565b6060810190811067ffffffffffffffff821117610a8d57604052565b610640810190811067ffffffffffffffff821117610a8d57604052565b90601f8019910116810190811067ffffffffffffffff821117610a8d57604052565b919082018092116105b557565b6001548110156113095760016000527fb10e2d527612073b26eecdfd717e6a320cf44b4afac2b0732d9fcbe2b7fa0cf60190600090565b634e487b7160e01b600052603260045260246000fd5b9081602091031261017f5751801515810361017f5790565b1561133e57565b60405162461bcd60e51b8152602060048201526016602482015275082e4e4c2f240e6d2f4cae640daeae6e840dac2e8c6d60531b6044820152606490fd5b91908110156113095760051b0190565b6000546001600160a01b031633036113a057565b60405163118cdaa760e01b8152336004820152602490fd5b600080546001600160a01b0319811682556001600160a01b03167f8be0079c531659141344cd1fd0a4f28419497f9722a3daafe3b4186f6b6457e08280a356fe24d060b91e1ac621f42c2b8fc99cd280985f736719885fba2e00c0fc4d314aeca264697066735822122058ebcfeb46a7394bb8227c92b9c185d6826ef5d1753580ec7d946f220302475664736f6c63430008180033",
          "opcodes": "PUSH1 0x80 CALLVALUE PUSH3 0x164 JUMPI PUSH1 0x1F PUSH3 0x15E3 CODESIZE DUP2 SWAP1 SUB SWAP2 DUP3 ADD PUSH1 0x1F NOT AND DUP4 ADD SWAP2 PUSH1 0x1 PUSH1 0x1 PUSH1 0x40 SHL SUB DUP4 GT DUP5 DUP5 LT OR PUSH3 0x169 JUMPI DUP1 DUP5 SWAP3 PUSH1 0xC0 SWAP5 PUSH1 0x40 MSTORE DUP4 CODECOPY DUP2 ADD SUB SLT PUSH3 0x164 JUMPI PUSH3 0x4D DUP2 PUSH3 0x17F JUMP JUMPDEST SWAP1 PUSH3 0x5C PUSH1 0x20 DUP3 ADD PUSH3 0x17F JUMP JUMPDEST SWAP2 PUSH1 0x40 DUP3 ADD MLOAD SWAP1 PUSH1 0x60 DUP4 ADD MLOAD SWAP4 PUSH3 0x7C PUSH1 0xA0 PUSH1 0x80 DUP7 ADD MLOAD SWAP6 ADD PUSH3 0x17F JUMP JUMPDEST SWAP2 CALLER ISZERO PUSH3 0x14B JUMPI PUSH1 0x0 DUP1 SLOAD CALLER PUSH1 0x1 PUSH1 0x1 PUSH1 0xA0 SHL SUB NOT DUP1 DUP4 AND DUP3 OR DUP5 SSTORE PUSH1 0x40 MLOAD SWAP10 SWAP1 SWAP9 PUSH1 0x1 PUSH1 0x1 PUSH1 0xA0 SHL SUB SWAP9 SWAP1 SWAP5 SWAP2 SWAP4 SWAP1 SWAP3 SWAP1 DUP10 AND PUSH32 0x8BE0079C531659141344CD1FD0A4F28419497F9722A3DAAFE3B4186F6B6457E0 DUP4 DUP1 LOG3 PUSH1 0xC SLOAD SWAP1 PUSH1 0xFF DUP3 AND PUSH1 0x4 DUP2 LT ISZERO PUSH3 0x137 JUMPI PUSH3 0x134 JUMPI POP SWAP2 DUP8 SWAP6 SWAP5 SWAP3 SWAP2 PUSH1 0x1 DUP8 SWAP6 SWAP4 PUSH1 0xFF NOT AND OR PUSH1 0xC SSTORE PUSH1 0x3 SSTORE PUSH1 0x4 SSTORE PUSH1 0x5 SSTORE AND DUP6 PUSH1 0xE SLOAD AND OR PUSH1 0xE SSTORE AND DUP4 PUSH1 0xF SLOAD AND OR PUSH1 0xF SSTORE AND SWAP1 PUSH1 0x10 SLOAD AND OR PUSH1 0x10 SSTORE PUSH2 0x144E SWAP1 DUP2 PUSH3 0x195 DUP3 CODECOPY RETURN JUMPDEST DUP1 REVERT JUMPDEST PUSH4 0x4E487B71 PUSH1 0xE0 SHL DUP3 MSTORE PUSH1 0x21 PUSH1 0x4 MSTORE PUSH1 0x24 DUP3 REVERT JUMPDEST PUSH1 0x40 MLOAD PUSH4 0x1E4FBDF7 PUSH1 0xE0 SHL DUP2 MSTORE PUSH1 0x0 PUSH1 0x4 DUP3 ADD MSTORE PUSH1 0x24 SWAP1 REVERT JUMPDEST PUSH1 0x0 DUP1 REVERT JUMPDEST PUSH4 0x4E487B71 PUSH1 0xE0 SHL PUSH1 0x0 MSTORE PUSH1 0x41 PUSH1 0x4 MSTORE PUSH1 0x24 PUSH1 0x0 REVERT JUMPDEST MLOAD SWAP1 PUSH1 0x1 PUSH1 0x1 PUSH1 0xA0 SHL SUB DUP3 AND DUP3 SUB PUSH3 0x164 JUMPI JUMP INVALID PUSH1 0x80 DUP1 PUSH1 0x40 MSTORE PUSH1 0x4 CALLDATASIZE LT ISZERO PUSH2 0x13 JUMPI PUSH1 0x0 DUP1 REVERT JUMPDEST PUSH1 0x0 CALLDATALOAD PUSH1 0xE0 SHR SWAP1 DUP2 PUSH3 0x7948B4 EQ PUSH2 0x110D JUMPI POP DUP1 PUSH4 0x8FB5ADF EQ PUSH2 0x10DB JUMPI DUP1 PUSH4 0xED62B7D EQ PUSH2 0x1032 JUMPI DUP1 PUSH4 0x18830F55 EQ PUSH2 0x1009 JUMPI DUP1 PUSH4 0x1FBE1979 EQ PUSH2 0xD6F JUMPI DUP1 PUSH4 0x23024408 EQ PUSH2 0xB9D JUMPI DUP1 PUSH4 0x337BF881 EQ PUSH2 0xB6B JUMPI DUP1 PUSH4 0x3F31F2A8 EQ PUSH2 0x81D JUMPI DUP1 PUSH4 0x3FB27B85 EQ PUSH2 0x68A JUMPI DUP1 PUSH4 0x61FE9AB8 EQ PUSH2 0x658 JUMPI DUP1 PUSH4 0x715018A6 EQ PUSH2 0x635 JUMPI DUP1 PUSH4 0x7625391A EQ PUSH2 0x27F JUMPI DUP1 PUSH4 0x78A3B823 EQ PUSH2 0x256 JUMPI DUP1 PUSH4 0x7CBA94E9 EQ PUSH2 0x22D JUMPI DUP1 PUSH4 0x8DA5CB5B EQ PUSH2 0x204 JUMPI DUP1 PUSH4 0xBFE10928 EQ PUSH2 0x1DB JUMPI DUP1 PUSH4 0xC7C4FF46 EQ PUSH2 0x1AE JUMPI DUP1 PUSH4 0xD1D3F22C EQ PUSH2 0x184 JUMPI PUSH4 0xF2FDE38B EQ PUSH2 0xEF JUMPI PUSH1 0x0 DUP1 REVERT JUMPDEST CALLVALUE PUSH2 0x17F JUMPI PUSH1 0x20 CALLDATASIZE PUSH1 0x3 NOT ADD SLT PUSH2 0x17F JUMPI PUSH1 0x4 CALLDATALOAD PUSH1 0x1 PUSH1 0x1 PUSH1 0xA0 SHL SUB DUP2 DUP2 AND SWAP2 DUP3 SWAP1 SUB PUSH2 0x17F JUMPI PUSH2 0x11E PUSH2 0x138C JUMP JUMPDEST DUP2 ISZERO PUSH2 0x166 JUMPI PUSH1 0x0 SLOAD DUP3 PUSH12 0xFFFFFFFFFFFFFFFFFFFFFFFF PUSH1 0xA0 SHL DUP3 AND OR PUSH1 0x0 SSTORE AND PUSH32 0x8BE0079C531659141344CD1FD0A4F28419497F9722A3DAAFE3B4186F6B6457E0 PUSH1 0x0 DUP1 LOG3 STOP JUMPDEST PUSH1 0x40 MLOAD PUSH4 0x1E4FBDF7 PUSH1 0xE0 SHL DUP2 MSTORE PUSH1 0x0 PUSH1 0x4 DUP3 ADD MSTORE PUSH1 0x24 SWAP1 REVERT JUMPDEST PUSH1 0x0 DUP1 REVERT JUMPDEST CALLVALUE PUSH2 0x17F JUMPI PUSH1 0x0 CALLDATASIZE PUSH1 0x3 NOT ADD SLT PUSH2 0x17F JUMPI PUSH1 0x20 PUSH1 0xFF PUSH1 0xC SLOAD AND PUSH1 0x40 MLOAD SWAP1 PUSH2 0x1AA DUP2 PUSH2 0x1219 JUMP JUMPDEST DUP2 MSTORE RETURN JUMPDEST CALLVALUE PUSH2 0x17F JUMPI PUSH1 0x0 CALLDATASIZE PUSH1 0x3 NOT ADD SLT PUSH2 0x17F JUMPI PUSH1 0xC SLOAD PUSH1 0x40 MLOAD PUSH1 0x8 SWAP2 SWAP1 SWAP2 SHR PUSH1 0x1 PUSH1 0x1 PUSH1 0xA0 SHL SUB AND DUP2 MSTORE PUSH1 0x20 SWAP1 RETURN JUMPDEST CALLVALUE PUSH2 0x17F JUMPI PUSH1 0x0 CALLDATASIZE PUSH1 0x3 NOT ADD SLT PUSH2 0x17F JUMPI PUSH1 0xD SLOAD PUSH1 0x40 MLOAD PUSH1 0x1 PUSH1 0x1 PUSH1 0xA0 SHL SUB SWAP1 SWAP2 AND DUP2 MSTORE PUSH1 0x20 SWAP1 RETURN JUMPDEST CALLVALUE PUSH2 0x17F JUMPI PUSH1 0x0 CALLDATASIZE PUSH1 0x3 NOT ADD SLT PUSH2 0x17F JUMPI PUSH1 0x0 SLOAD PUSH1 0x40 MLOAD PUSH1 0x1 PUSH1 0x1 PUSH1 0xA0 SHL SUB SWAP1 SWAP2 AND DUP2 MSTORE PUSH1 0x20 SWAP1 RETURN JUMPDEST CALLVALUE PUSH2 0x17F JUMPI PUSH1 0x0 CALLDATASIZE PUSH1 0x3 NOT ADD SLT PUSH2 0x17F JUMPI PUSH1 0xE SLOAD PUSH1 0x40 MLOAD PUSH1 0x1 PUSH1 0x1 PUSH1 0xA0 SHL SUB SWAP1 SWAP2 AND DUP2 MSTORE PUSH1 0x20 SWAP1 RETURN JUMPDEST CALLVALUE PUSH2 0x17F JUMPI PUSH1 0x0 CALLDATASIZE PUSH1 0x3 NOT ADD SLT PUSH2 0x17F JUMPI PUSH1 0xF SLOAD PUSH1 0x40 MLOAD PUSH1 0x1 PUSH1 0x1 PUSH1 0xA0 SHL SUB SWAP1 SWAP2 AND DUP2 MSTORE PUSH1 0x20 SWAP1 RETURN JUMPDEST CALLVALUE PUSH2 0x17F JUMPI PUSH1 0x40 CALLDATASIZE PUSH1 0x3 NOT ADD SLT PUSH2 0x17F JUMPI PUSH1 0x24 CALLDATALOAD PUSH1 0x3 PUSH1 0xFF PUSH1 0xC SLOAD AND PUSH2 0x2A4 DUP2 PUSH2 0x1219 JUMP JUMPDEST SUB PUSH2 0x17F JUMPI PUSH1 0xD SLOAD PUSH1 0x1 PUSH1 0x1 PUSH1 0xA0 SHL SUB AND CALLER SUB PUSH2 0x5E1 JUMPI PUSH1 0xE SLOAD PUSH1 0xF SLOAD PUSH1 0x1 SLOAD PUSH1 0x1 PUSH1 0x1 PUSH1 0xA0 SHL SUB SWAP3 DUP4 AND SWAP3 SWAP1 SWAP2 AND SWAP1 PUSH2 0x2E0 DUP5 PUSH1 0x4 CALLDATALOAD PUSH2 0x12C5 JUMP JUMPDEST PUSH1 0x0 NOT DUP2 ADD SWAP1 DUP2 GT PUSH2 0x5B5 JUMPI DUP2 LT PUSH2 0x5CB JUMPI JUMPDEST POP SWAP2 DUP1 JUMPDEST PUSH2 0x2FD JUMPI STOP JUMPDEST PUSH2 0x309 DUP2 PUSH1 0x4 CALLDATALOAD PUSH2 0x12C5 JUMP JUMPDEST PUSH1 0x0 NOT DUP2 ADD SWAP1 DUP2 GT PUSH2 0x5B5 JUMPI PUSH2 0x31E SWAP1 PUSH2 0x12D2 JUMP JUMPDEST PUSH1 0x1 DUP1 PUSH1 0xA0 SHL SUB SWAP2 SLOAD SWAP1 PUSH1 0x3 SHL SHR AND DUP1 PUSH1 0x0 MSTORE PUSH1 0x2 PUSH1 0x20 MSTORE PUSH1 0x40 PUSH1 0x0 KECCAK256 PUSH1 0x40 MLOAD SWAP1 PUSH2 0x348 DUP3 PUSH2 0x126A JUMP JUMPDEST PUSH1 0xFF PUSH1 0x2 DUP2 DUP4 SLOAD AND SWAP3 PUSH2 0x35A DUP5 PUSH2 0x1219 JUMP JUMPDEST DUP4 DUP6 MSTORE PUSH1 0x1 DUP2 ADD SLOAD PUSH1 0x20 DUP7 ADD MSTORE ADD SLOAD AND ISZERO DUP1 ISZERO PUSH1 0x40 DUP5 ADD MSTORE PUSH2 0x384 JUMPI JUMPDEST POP POP POP PUSH1 0x0 NOT ADD DUP1 PUSH2 0x2F7 JUMP JUMPDEST DUP1 PUSH2 0x390 PUSH1 0x1 SWAP3 PUSH2 0x1219 JUMP JUMPDEST PUSH2 0x399 DUP2 PUSH2 0x1219 JUMP JUMPDEST SUB PUSH2 0x43A JUMPI PUSH1 0x0 DUP1 DUP1 DUP1 PUSH1 0x20 DUP6 ADD MLOAD DUP7 DUP3 DUP3 ISZERO PUSH2 0x431 JUMPI JUMPDEST CALL ISZERO PUSH2 0x425 JUMPI PUSH1 0x40 DUP2 PUSH1 0x20 PUSH1 0x0 DUP1 MLOAD PUSH1 0x20 PUSH2 0x13F9 DUP4 CODECOPY DUP2 MLOAD SWAP2 MSTORE SWAP4 ADD MLOAD PUSH2 0x3DB PUSH1 0x9 SWAP2 DUP3 SLOAD PUSH2 0x12C5 JUMP JUMPDEST SWAP1 SSTORE JUMPDEST DUP4 PUSH1 0x0 MSTORE PUSH1 0x2 PUSH1 0x20 MSTORE PUSH1 0x2 DUP3 PUSH1 0x0 KECCAK256 ADD PUSH1 0x1 PUSH1 0xFF NOT DUP3 SLOAD AND OR SWAP1 SSTORE PUSH1 0x20 DUP2 MLOAD SWAP2 PUSH2 0x407 DUP4 PUSH2 0x1219 JUMP JUMPDEST ADD MLOAD DUP3 MLOAD SWAP2 PUSH2 0x415 DUP2 PUSH2 0x1219 JUMP JUMPDEST DUP3 MSTORE PUSH1 0x20 DUP3 ADD MSTORE LOG2 DUP4 DUP1 DUP1 PUSH2 0x377 JUMP JUMPDEST PUSH1 0x40 MLOAD RETURNDATASIZE PUSH1 0x0 DUP3 RETURNDATACOPY RETURNDATASIZE SWAP1 REVERT JUMPDEST POP PUSH2 0x8FC PUSH2 0x3B1 JUMP JUMPDEST PUSH1 0x2 DUP2 MLOAD PUSH2 0x447 DUP2 PUSH2 0x1219 JUMP JUMPDEST PUSH2 0x450 DUP2 PUSH2 0x1219 JUMP JUMPDEST SUB PUSH2 0x4F2 JUMPI PUSH1 0x20 DUP2 DUP2 ADD MLOAD PUSH1 0x40 MLOAD PUSH4 0xA9059CBB PUSH1 0xE0 SHL DUP2 MSTORE PUSH1 0x1 PUSH1 0x1 PUSH1 0xA0 SHL SUB DUP6 AND PUSH1 0x4 DUP3 ADD MSTORE PUSH1 0x24 DUP2 ADD SWAP2 SWAP1 SWAP2 MSTORE SWAP2 SWAP1 DUP3 PUSH1 0x44 DUP2 PUSH1 0x0 DUP10 GAS CALL SWAP1 DUP2 ISZERO PUSH2 0x425 JUMPI PUSH1 0x0 DUP1 MLOAD PUSH1 0x20 PUSH2 0x13F9 DUP4 CODECOPY DUP2 MLOAD SWAP2 MSTORE SWAP3 PUSH1 0x40 SWAP3 PUSH2 0x4C3 JUMPI JUMPDEST POP PUSH1 0x20 DUP2 ADD MLOAD PUSH2 0x4BC PUSH1 0xA SWAP2 DUP3 SLOAD PUSH2 0x12C5 JUMP JUMPDEST SWAP1 SSTORE PUSH2 0x3DE JUMP JUMPDEST PUSH2 0x4E4 SWAP1 PUSH1 0x20 RETURNDATASIZE PUSH1 0x20 GT PUSH2 0x4EB JUMPI JUMPDEST PUSH2 0x4DC DUP2 DUP4 PUSH2 0x12A3 JUMP JUMPDEST DUP2 ADD SWAP1 PUSH2 0x131F JUMP JUMPDEST POP DUP8 PUSH2 0x4A9 JUMP JUMPDEST POP RETURNDATASIZE PUSH2 0x4D2 JUMP JUMPDEST PUSH1 0x3 DUP2 MLOAD PUSH2 0x4FF DUP2 PUSH2 0x1219 JUMP JUMPDEST PUSH2 0x508 DUP2 PUSH2 0x1219 JUMP JUMPDEST EQ PUSH2 0x525 JUMPI JUMPDEST PUSH1 0x40 PUSH1 0x0 DUP1 MLOAD PUSH1 0x20 PUSH2 0x13F9 DUP4 CODECOPY DUP2 MLOAD SWAP2 MSTORE SWAP2 PUSH2 0x3DE JUMP JUMPDEST PUSH1 0x20 DUP2 DUP2 ADD MLOAD PUSH1 0x40 MLOAD PUSH4 0xA9059CBB PUSH1 0xE0 SHL DUP2 MSTORE PUSH1 0x1 PUSH1 0x1 PUSH1 0xA0 SHL SUB DUP6 AND PUSH1 0x4 DUP3 ADD MSTORE PUSH1 0x24 DUP2 ADD SWAP2 SWAP1 SWAP2 MSTORE SWAP2 SWAP1 DUP3 PUSH1 0x44 DUP2 PUSH1 0x0 DUP11 GAS CALL SWAP1 DUP2 ISZERO PUSH2 0x425 JUMPI PUSH1 0x0 DUP1 MLOAD PUSH1 0x20 PUSH2 0x13F9 DUP4 CODECOPY DUP2 MLOAD SWAP2 MSTORE SWAP3 PUSH1 0x40 SWAP3 PUSH2 0x596 JUMPI JUMPDEST POP PUSH1 0x20 DUP2 ADD MLOAD PUSH2 0x58C PUSH1 0xB SWAP2 DUP3 SLOAD PUSH2 0x12C5 JUMP JUMPDEST SWAP1 SSTORE SWAP2 POP POP PUSH2 0x50E JUMP JUMPDEST PUSH2 0x5AE SWAP1 PUSH1 0x20 RETURNDATASIZE PUSH1 0x20 GT PUSH2 0x4EB JUMPI PUSH2 0x4DC DUP2 DUP4 PUSH2 0x12A3 JUMP JUMPDEST POP DUP8 PUSH2 0x579 JUMP JUMPDEST PUSH4 0x4E487B71 PUSH1 0xE0 SHL PUSH1 0x0 MSTORE PUSH1 0x11 PUSH1 0x4 MSTORE PUSH1 0x24 PUSH1 0x0 REVERT JUMPDEST SWAP1 SWAP3 POP PUSH1 0x4 CALLDATALOAD DUP2 SUB SWAP1 DUP2 GT PUSH2 0x5B5 JUMPI SWAP2 DUP4 PUSH2 0x2F3 JUMP JUMPDEST PUSH1 0x40 MLOAD PUSH3 0x461BCD PUSH1 0xE5 SHL DUP2 MSTORE PUSH1 0x20 PUSH1 0x4 DUP3 ADD MSTORE PUSH1 0x26 PUSH1 0x24 DUP3 ADD MSTORE PUSH32 0x4F6E6C79206469737472696275746F722063616E2063616C6C20646973747269 PUSH1 0x44 DUP3 ADD MSTORE PUSH6 0x627574652829 PUSH1 0xD0 SHL PUSH1 0x64 DUP3 ADD MSTORE PUSH1 0x84 SWAP1 REVERT JUMPDEST CALLVALUE PUSH2 0x17F JUMPI PUSH1 0x0 CALLDATASIZE PUSH1 0x3 NOT ADD SLT PUSH2 0x17F JUMPI PUSH2 0x64E PUSH2 0x138C JUMP JUMPDEST PUSH2 0x656 PUSH2 0x13B8 JUMP JUMPDEST STOP JUMPDEST CALLVALUE PUSH2 0x17F JUMPI PUSH1 0x0 CALLDATASIZE PUSH1 0x3 NOT ADD SLT PUSH2 0x17F JUMPI PUSH1 0x3 SLOAD PUSH1 0x4 SLOAD PUSH1 0x5 SLOAD PUSH1 0x40 DUP1 MLOAD SWAP4 DUP5 MSTORE PUSH1 0x20 DUP5 ADD SWAP3 SWAP1 SWAP3 MSTORE SWAP1 DUP3 ADD MSTORE PUSH1 0x60 SWAP1 RETURN JUMPDEST CALLVALUE PUSH2 0x17F JUMPI PUSH1 0x0 CALLDATASIZE PUSH1 0x3 NOT ADD SLT PUSH2 0x17F JUMPI PUSH1 0xC SLOAD PUSH1 0x1 PUSH1 0xFF DUP3 AND PUSH2 0x6AD DUP2 PUSH2 0x1219 JUMP JUMPDEST SUB PUSH2 0x17F JUMPI PUSH2 0x6BA PUSH2 0x138C JUMP JUMPDEST PUSH1 0x3 SLOAD PUSH1 0x6 SLOAD SUB PUSH2 0x7C8 JUMPI PUSH1 0x4 SLOAD PUSH1 0x7 SLOAD SUB PUSH2 0x772 JUMPI PUSH1 0x5 SLOAD PUSH1 0x8 SLOAD SUB PUSH2 0x71C JUMPI PUSH1 0xFF NOT AND PUSH1 0x2 OR PUSH1 0xC SSTORE PUSH2 0x6ED PUSH2 0x138C JUMP JUMPDEST PUSH2 0x6F5 PUSH2 0x13B8 JUMP JUMPDEST PUSH32 0x1B2D71EB44F882534BF4E86F940C56CCC869FFB927E2BAB86561DE93950C2216 PUSH1 0x0 DUP1 LOG1 STOP JUMPDEST PUSH1 0x40 MLOAD PUSH3 0x461BCD PUSH1 0xE5 SHL DUP2 MSTORE PUSH1 0x20 PUSH1 0x4 DUP3 ADD MSTORE PUSH1 0x28 PUSH1 0x24 DUP3 ADD MSTORE PUSH32 0x5745544820706F70756C61746520746F74616C7320646F206E6F74206D617463 PUSH1 0x44 DUP3 ADD MSTORE PUSH8 0x1A081D185C99D95D PUSH1 0xC2 SHL PUSH1 0x64 DUP3 ADD MSTORE PUSH1 0x84 SWAP1 REVERT JUMPDEST PUSH1 0x40 MLOAD PUSH3 0x461BCD PUSH1 0xE5 SHL DUP2 MSTORE PUSH1 0x20 PUSH1 0x4 DUP3 ADD MSTORE PUSH1 0x28 PUSH1 0x24 DUP3 ADD MSTORE PUSH32 0x5553444220706F70756C61746520746F74616C7320646F206E6F74206D617463 PUSH1 0x44 DUP3 ADD MSTORE PUSH8 0x1A081D185C99D95D PUSH1 0xC2 SHL PUSH1 0x64 DUP3 ADD MSTORE PUSH1 0x84 SWAP1 REVERT JUMPDEST PUSH1 0x40 MLOAD PUSH3 0x461BCD PUSH1 0xE5 SHL DUP2 MSTORE PUSH1 0x20 PUSH1 0x4 DUP3 ADD MSTORE PUSH1 0x27 PUSH1 0x24 DUP3 ADD MSTORE PUSH32 0x45544820706F70756C61746520746F74616C7320646F206E6F74206D61746368 PUSH1 0x44 DUP3 ADD MSTORE PUSH7 0x81D185C99D95D PUSH1 0xCA SHL PUSH1 0x64 DUP3 ADD MSTORE PUSH1 0x84 SWAP1 REVERT JUMPDEST CALLVALUE PUSH2 0x17F JUMPI PUSH1 0x60 CALLDATASIZE PUSH1 0x3 NOT ADD SLT PUSH2 0x17F JUMPI PUSH8 0xFFFFFFFFFFFFFFFF PUSH1 0x4 CALLDATALOAD DUP2 DUP2 GT PUSH2 0x17F JUMPI PUSH2 0x84F SWAP1 CALLDATASIZE SWAP1 PUSH1 0x4 ADD PUSH2 0x1239 JUMP JUMPDEST SWAP2 PUSH1 0x24 CALLDATALOAD DUP2 DUP2 GT PUSH2 0x17F JUMPI PUSH2 0x868 SWAP1 CALLDATASIZE SWAP1 PUSH1 0x4 ADD PUSH2 0x1239 JUMP JUMPDEST SWAP1 SWAP2 PUSH1 0x44 CALLDATALOAD SWAP1 DUP2 GT PUSH2 0x17F JUMPI PUSH2 0x882 SWAP1 CALLDATASIZE SWAP1 PUSH1 0x4 ADD PUSH2 0x1239 JUMP JUMPDEST SWAP4 SWAP1 SWAP2 PUSH1 0x1 PUSH1 0xFF PUSH1 0xC SLOAD AND PUSH2 0x896 DUP2 PUSH2 0x1219 JUMP JUMPDEST SUB PUSH2 0x17F JUMPI PUSH2 0x8A3 PUSH2 0x138C JUMP JUMPDEST PUSH2 0x8AE DUP2 DUP8 EQ PUSH2 0x1337 JUMP JUMPDEST PUSH2 0x8B9 DUP6 DUP3 EQ PUSH2 0x1337 JUMP JUMPDEST PUSH1 0x0 JUMPDEST PUSH2 0xFFFF DUP2 AND DUP8 DUP2 LT ISZERO PUSH2 0x656 JUMPI PUSH2 0x8D4 DUP2 DUP10 DUP7 PUSH2 0x137C JUMP JUMPDEST CALLDATALOAD PUSH1 0x1 PUSH1 0x1 PUSH1 0xA0 SHL SUB DUP2 AND DUP2 SUB PUSH2 0x17F JUMPI PUSH2 0x8F0 DUP3 DUP6 DUP10 PUSH2 0x137C JUMP JUMPDEST CALLDATALOAD SWAP2 PUSH1 0x4 DUP4 LT ISZERO PUSH2 0x17F JUMPI PUSH2 0x906 SWAP1 DUP10 DUP9 PUSH2 0x137C JUMP JUMPDEST CALLDATALOAD SWAP1 PUSH2 0x911 DUP4 PUSH2 0x1219 JUMP JUMPDEST DUP3 ISZERO ISZERO DUP1 PUSH2 0xB57 JUMPI JUMPDEST ISZERO PUSH2 0xB1D JUMPI DUP2 ISZERO PUSH2 0xAE5 JUMPI PUSH1 0x1 DUP1 PUSH1 0xA0 SHL SUB DUP2 AND PUSH1 0x0 MSTORE PUSH1 0x2 DUP1 PUSH1 0x20 MSTORE PUSH1 0xFF PUSH1 0x40 PUSH1 0x0 KECCAK256 SLOAD AND PUSH2 0x949 DUP2 PUSH2 0x1219 JUMP JUMPDEST ISZERO PUSH2 0x968 JUMPI JUMPDEST POP POP POP POP PUSH2 0xFFFF DUP1 SWAP2 AND SWAP1 DUP2 EQ PUSH2 0x5B5 JUMPI PUSH1 0x1 ADD PUSH2 0x8BC JUMP JUMPDEST PUSH2 0x971 DUP5 PUSH2 0x1219 JUMP JUMPDEST PUSH1 0x1 DUP5 SUB PUSH2 0xAA3 JUMPI PUSH1 0x6 PUSH2 0x986 DUP5 DUP3 SLOAD PUSH2 0x12C5 JUMP JUMPDEST SWAP1 SSTORE JUMPDEST PUSH1 0x40 MLOAD SWAP1 PUSH2 0x996 DUP3 PUSH2 0x126A JUMP JUMPDEST PUSH2 0x99F DUP6 PUSH2 0x1219 JUMP JUMPDEST DUP5 DUP3 MSTORE PUSH1 0xFF PUSH1 0x20 DUP4 ADD SWAP2 DUP6 DUP4 MSTORE PUSH1 0x40 DUP5 ADD SWAP4 PUSH1 0x0 DUP6 MSTORE PUSH1 0x1 DUP1 PUSH1 0xA0 SHL SUB DUP7 AND PUSH1 0x0 MSTORE DUP2 PUSH1 0x20 MSTORE PUSH1 0x40 PUSH1 0x0 KECCAK256 SWAP1 MLOAD SWAP4 PUSH2 0x9D6 DUP6 PUSH2 0x1219 JUMP JUMPDEST PUSH2 0x9DF DUP6 PUSH2 0x1219 JUMP JUMPDEST DUP4 NOT SWAP5 DUP5 DUP7 DUP5 SLOAD AND SWAP2 AND OR DUP3 SSTORE MLOAD PUSH1 0x1 DUP3 ADD SSTORE ADD SWAP3 MLOAD ISZERO ISZERO SWAP2 DUP4 SLOAD AND SWAP2 AND OR SWAP1 SSTORE PUSH1 0x1 SLOAD SWAP2 PUSH9 0x10000000000000000 DUP4 LT ISZERO PUSH2 0xA8D JUMPI PUSH32 0x184DBE1C732D6D725F0556C3C6DE11E5D2F340C58A4F4B94214A1646614A8B29 SWAP4 PUSH2 0xA49 DUP5 PUSH1 0x1 PUSH1 0x60 SWAP7 ADD PUSH1 0x1 SSTORE PUSH2 0x12D2 JUMP JUMPDEST DUP2 SLOAD PUSH1 0x1 PUSH1 0x1 PUSH1 0xA0 SHL SUB SWAP6 DUP7 AND PUSH1 0x3 SWAP3 SWAP1 SWAP3 SHL DUP3 DUP2 SHL SWAP7 SWAP1 SHL NOT AND SWAP5 SWAP1 SWAP5 OR SWAP1 SSTORE PUSH1 0x40 MLOAD SWAP3 DUP4 MSTORE PUSH2 0xA79 DUP2 PUSH2 0x1219 JUMP JUMPDEST PUSH1 0x20 DUP4 ADD MSTORE PUSH1 0x40 DUP3 ADD MSTORE LOG1 DUP8 DUP1 DUP1 DUP1 PUSH2 0x94F JUMP JUMPDEST PUSH4 0x4E487B71 PUSH1 0xE0 SHL PUSH1 0x0 MSTORE PUSH1 0x41 PUSH1 0x4 MSTORE PUSH1 0x24 PUSH1 0x0 REVERT JUMPDEST PUSH2 0xAAC DUP5 PUSH2 0x1219 JUMP JUMPDEST DUP4 DUP2 SUB PUSH2 0xAC7 JUMPI PUSH1 0x7 PUSH2 0xAC0 DUP5 DUP3 SLOAD PUSH2 0x12C5 JUMP JUMPDEST SWAP1 SSTORE PUSH2 0x989 JUMP JUMPDEST PUSH2 0xAD0 DUP5 PUSH2 0x1219 JUMP JUMPDEST PUSH1 0x3 DUP5 SUB PUSH2 0x989 JUMPI PUSH1 0x8 PUSH2 0xAC0 DUP5 DUP3 SLOAD PUSH2 0x12C5 JUMP JUMPDEST PUSH1 0x40 MLOAD PUSH3 0x461BCD PUSH1 0xE5 SHL DUP2 MSTORE PUSH1 0x20 PUSH1 0x4 DUP3 ADD MSTORE PUSH1 0x10 PUSH1 0x24 DUP3 ADD MSTORE PUSH16 0x496E76616C6964207175616E74697479 PUSH1 0x80 SHL PUSH1 0x44 DUP3 ADD MSTORE PUSH1 0x64 SWAP1 REVERT JUMPDEST PUSH1 0x40 MLOAD PUSH3 0x461BCD PUSH1 0xE5 SHL DUP2 MSTORE PUSH1 0x20 PUSH1 0x4 DUP3 ADD MSTORE PUSH1 0x12 PUSH1 0x24 DUP3 ADD MSTORE PUSH18 0x496E76616C696420746F6B656E2074797065 PUSH1 0x70 SHL PUSH1 0x44 DUP3 ADD MSTORE PUSH1 0x64 SWAP1 REVERT JUMPDEST POP PUSH2 0xB61 DUP4 PUSH2 0x1219 JUMP JUMPDEST PUSH1 0x3 DUP4 GT ISZERO PUSH2 0x91A JUMP JUMPDEST CALLVALUE PUSH2 0x17F JUMPI PUSH1 0x0 CALLDATASIZE PUSH1 0x3 NOT ADD SLT PUSH2 0x17F JUMPI PUSH1 0x6 SLOAD PUSH1 0x7 SLOAD PUSH1 0x8 SLOAD PUSH1 0x40 DUP1 MLOAD SWAP4 DUP5 MSTORE PUSH1 0x20 DUP5 ADD SWAP3 SWAP1 SWAP3 MSTORE SWAP1 DUP3 ADD MSTORE PUSH1 0x60 SWAP1 RETURN JUMPDEST PUSH1 0x20 DUP1 PUSH1 0x3 NOT CALLDATASIZE ADD SLT PUSH2 0x17F JUMPI PUSH1 0x4 CALLDATALOAD PUSH1 0x1 PUSH1 0x1 PUSH1 0xA0 SHL SUB DUP2 DUP2 AND SWAP3 SWAP2 DUP4 SWAP1 SUB PUSH2 0x17F JUMPI PUSH1 0x2 PUSH1 0xFF PUSH1 0xC SLOAD AND PUSH2 0xBD2 DUP2 PUSH2 0x1219 JUMP JUMPDEST SUB PUSH2 0x17F JUMPI CALLVALUE ISZERO ISZERO DUP1 PUSH2 0xD64 JUMPI JUMPDEST ISZERO PUSH2 0xD29 JUMPI PUSH1 0xE SLOAD PUSH1 0xF SLOAD PUSH1 0x7 SLOAD PUSH1 0x40 MLOAD PUSH4 0x23B872DD PUSH1 0xE0 SHL DUP1 DUP3 MSTORE CALLER PUSH1 0x4 DUP4 ADD MSTORE ADDRESS PUSH1 0x24 DUP4 ADD MSTORE PUSH1 0x44 DUP3 ADD SWAP3 SWAP1 SWAP3 MSTORE SWAP6 SWAP3 SWAP2 DUP5 AND SWAP2 DUP6 SWAP1 DUP8 SWAP1 PUSH1 0x64 SWAP1 DUP3 SWAP1 PUSH1 0x0 SWAP1 DUP10 AND GAS CALL SWAP2 DUP3 ISZERO PUSH2 0x425 JUMPI PUSH2 0xC66 SWAP7 DUP7 SWAP4 PUSH2 0xD0C JUMPI JUMPDEST POP PUSH1 0x8 SLOAD PUSH1 0x40 MLOAD SWAP3 DUP4 MSTORE CALLER PUSH1 0x4 DUP5 ADD MSTORE ADDRESS PUSH1 0x24 DUP5 ADD MSTORE PUSH1 0x44 DUP4 ADD MSTORE SWAP1 SWAP6 DUP7 SWAP2 SWAP1 DUP3 SWAP1 PUSH1 0x0 SWAP1 DUP3 SWAP1 PUSH1 0x64 DUP3 ADD SWAP1 JUMP JUMPDEST SUB SWAP3 GAS CALL SWAP3 DUP4 ISZERO PUSH2 0x425 JUMPI PUSH32 0xAE4CCAAEBAFD7429D917375073665C7B5F76B6FD002AC9BBA803BB7293E6D12D SWAP5 PUSH1 0x40 SWAP5 PUSH2 0xCEF JUMPI JUMPDEST POP PUSH1 0x3 PUSH1 0xC SLOAD PUSH2 0x100 PUSH1 0x1 PUSH1 0xA8 SHL SUB CALLER PUSH1 0x8 SHL AND SWAP1 PUSH11 0xFFFFFFFFFFFFFFFFFFFFFF PUSH1 0xA8 SHL AND OR OR SWAP3 DUP4 PUSH1 0xC SSTORE DUP3 PUSH12 0xFFFFFFFFFFFFFFFFFFFFFFFF PUSH1 0xA0 SHL PUSH1 0xD SLOAD AND OR PUSH1 0xD SSTORE DUP5 MLOAD SWAP4 PUSH1 0x8 SHR AND DUP4 MSTORE DUP3 ADD MSTORE LOG1 STOP JUMPDEST PUSH2 0xD05 SWAP1 DUP3 RETURNDATASIZE DUP5 GT PUSH2 0x4EB JUMPI PUSH2 0x4DC DUP2 DUP4 PUSH2 0x12A3 JUMP JUMPDEST POP DUP6 PUSH2 0xC9B JUMP JUMPDEST PUSH2 0xD22 SWAP1 DUP5 RETURNDATASIZE DUP7 GT PUSH2 0x4EB JUMPI PUSH2 0x4DC DUP2 DUP4 PUSH2 0x12A3 JUMP JUMPDEST POP DUP8 PUSH2 0xC38 JUMP JUMPDEST PUSH1 0x40 MLOAD PUSH3 0x461BCD PUSH1 0xE5 SHL DUP2 MSTORE PUSH1 0x4 DUP2 ADD DUP4 SWAP1 MSTORE PUSH1 0x13 PUSH1 0x24 DUP3 ADD MSTORE PUSH19 0x115512081D1BDD185B081A5B98DBDC9C9958DD PUSH1 0x6A SHL PUSH1 0x44 DUP3 ADD MSTORE PUSH1 0x64 SWAP1 REVERT JUMPDEST POP PUSH1 0x6 SLOAD CALLVALUE EQ PUSH2 0xBE0 JUMP JUMPDEST CALLVALUE PUSH2 0x17F JUMPI PUSH1 0x0 CALLDATASIZE PUSH1 0x3 NOT ADD SLT PUSH2 0x17F JUMPI PUSH1 0xC SLOAD PUSH1 0x3 PUSH1 0xFF DUP3 AND PUSH2 0xD92 DUP2 PUSH2 0x1219 JUMP JUMPDEST SUB PUSH2 0x17F JUMPI PUSH1 0x1 PUSH1 0x1 PUSH1 0xA0 SHL SUB SWAP1 PUSH1 0x8 SHR DUP2 AND DUP1 ISZERO PUSH2 0xFCD JUMPI DUP1 CALLER SUB PUSH2 0xF88 JUMPI PUSH1 0xE SLOAD PUSH1 0xF SLOAD PUSH1 0x40 MLOAD PUSH4 0x70A08231 PUSH1 0xE0 SHL DUP1 DUP3 MSTORE ADDRESS PUSH1 0x4 DUP4 ADD MSTORE PUSH1 0x20 SWAP6 SWAP3 DUP4 AND SWAP5 SWAP3 SWAP4 DUP5 AND SWAP2 SELFBALANCE DUP8 DUP3 PUSH1 0x24 DUP2 DUP8 GAS STATICCALL SWAP2 DUP3 ISZERO PUSH2 0x425 JUMPI PUSH1 0x0 SWAP3 PUSH2 0xF59 JUMPI JUMPDEST POP PUSH1 0x40 MLOAD SWAP3 DUP4 MSTORE ADDRESS PUSH1 0x4 DUP5 ADD MSTORE DUP8 DUP4 PUSH1 0x24 DUP2 DUP11 GAS STATICCALL SWAP5 DUP6 ISZERO PUSH2 0x425 JUMPI DUP9 SWAP4 PUSH1 0x0 SWAP7 PUSH2 0xF28 JUMPI JUMPDEST POP DUP2 ISZERO DUP1 ISZERO PUSH2 0xEFD JUMPI JUMPDEST POP POP POP DUP1 PUSH2 0xE91 JUMPI JUMPDEST POP POP POP DUP1 PUSH2 0xE33 JUMPI STOP JUMPDEST PUSH1 0xC SLOAD PUSH1 0x40 MLOAD PUSH4 0xA9059CBB PUSH1 0xE0 SHL DUP2 MSTORE PUSH1 0x8 SWAP2 SWAP1 SWAP2 SHR SWAP3 SWAP1 SWAP3 AND PUSH1 0x1 PUSH1 0x1 PUSH1 0xA0 SHL SUB AND PUSH1 0x4 DUP4 ADD MSTORE PUSH1 0x24 DUP3 ADD MSTORE SWAP1 DUP3 SWAP1 DUP3 SWAP1 PUSH1 0x44 SWAP1 DUP3 SWAP1 PUSH1 0x0 SWAP1 GAS CALL DUP1 ISZERO PUSH2 0x425 JUMPI PUSH2 0xE7B JUMPI STOP JUMPDEST DUP2 PUSH2 0x656 SWAP3 SWAP1 RETURNDATASIZE LT PUSH2 0x4EB JUMPI PUSH2 0x4DC DUP2 DUP4 PUSH2 0x12A3 JUMP JUMPDEST PUSH1 0xC SLOAD PUSH1 0x40 MLOAD PUSH4 0xA9059CBB PUSH1 0xE0 SHL DUP2 MSTORE PUSH1 0x8 SWAP2 SWAP1 SWAP2 SHR DUP7 AND PUSH1 0x1 PUSH1 0x1 PUSH1 0xA0 SHL SUB AND PUSH1 0x4 DUP3 ADD MSTORE PUSH1 0x24 DUP2 ADD SWAP2 SWAP1 SWAP2 MSTORE SWAP2 DUP3 SWAP1 DUP2 PUSH1 0x0 DUP2 PUSH1 0x44 DUP2 ADD SUB SWAP3 GAS CALL DUP1 ISZERO PUSH2 0x425 JUMPI PUSH2 0xEE0 JUMPI JUMPDEST DUP5 DUP2 PUSH2 0xE29 JUMP JUMPDEST PUSH2 0xEF6 SWAP1 DUP6 RETURNDATASIZE DUP8 GT PUSH2 0x4EB JUMPI PUSH2 0x4DC DUP2 DUP4 PUSH2 0x12A3 JUMP JUMPDEST POP DUP5 PUSH2 0xED9 JUMP JUMPDEST PUSH1 0x0 SWAP4 SWAP5 POP DUP4 SWAP3 DUP4 SWAP3 DUP4 SWAP3 DUP4 SWAP1 PUSH2 0xF1F JUMPI JUMPDEST CALL ISZERO PUSH2 0x425 JUMPI DUP6 SWAP1 DUP8 DUP1 DUP1 PUSH2 0xE20 JUMP JUMPDEST POP PUSH2 0x8FC PUSH2 0xF0F JUMP JUMPDEST DUP5 DUP2 SWAP6 SWAP3 SWAP8 POP RETURNDATASIZE DUP4 GT PUSH2 0xF52 JUMPI JUMPDEST PUSH2 0xF40 DUP2 DUP4 PUSH2 0x12A3 JUMP JUMPDEST DUP2 ADD SUB SLT PUSH2 0x17F JUMPI DUP8 SWAP3 MLOAD SWAP5 DUP10 PUSH2 0xE16 JUMP JUMPDEST POP RETURNDATASIZE PUSH2 0xF36 JUMP JUMPDEST SWAP1 SWAP2 POP DUP8 DUP2 DUP2 RETURNDATASIZE DUP4 GT PUSH2 0xF81 JUMPI JUMPDEST PUSH2 0xF71 DUP2 DUP4 PUSH2 0x12A3 JUMP JUMPDEST DUP2 ADD SUB SLT PUSH2 0x17F JUMPI MLOAD SWAP1 DUP9 PUSH2 0xDF0 JUMP JUMPDEST POP RETURNDATASIZE PUSH2 0xF67 JUMP JUMPDEST PUSH1 0x40 MLOAD PUSH3 0x461BCD PUSH1 0xE5 SHL DUP2 MSTORE PUSH1 0x20 PUSH1 0x4 DUP3 ADD MSTORE PUSH1 0x19 PUSH1 0x24 DUP3 ADD MSTORE PUSH32 0x4F6E6C79206465706F7369746F722063616E2072657363756500000000000000 PUSH1 0x44 DUP3 ADD MSTORE PUSH1 0x64 SWAP1 REVERT JUMPDEST PUSH1 0x40 MLOAD PUSH3 0x461BCD PUSH1 0xE5 SHL DUP2 MSTORE PUSH1 0x20 PUSH1 0x4 DUP3 ADD MSTORE PUSH1 0x14 PUSH1 0x24 DUP3 ADD MSTORE PUSH20 0x11195C1BDCDA5D081B9BDD081CD95B9D081E595D PUSH1 0x62 SHL PUSH1 0x44 DUP3 ADD MSTORE PUSH1 0x64 SWAP1 REVERT JUMPDEST CALLVALUE PUSH2 0x17F JUMPI PUSH1 0x0 CALLDATASIZE PUSH1 0x3 NOT ADD SLT PUSH2 0x17F JUMPI PUSH1 0x10 SLOAD PUSH1 0x40 MLOAD PUSH1 0x1 PUSH1 0x1 PUSH1 0xA0 SHL SUB SWAP1 SWAP2 AND DUP2 MSTORE PUSH1 0x20 SWAP1 RETURN JUMPDEST CALLVALUE PUSH2 0x17F JUMPI PUSH1 0x20 CALLDATASIZE PUSH1 0x3 NOT ADD SLT PUSH2 0x17F JUMPI PUSH1 0x4 CALLDATALOAD PUSH1 0x1 PUSH1 0x1 PUSH1 0xA0 SHL SUB DUP2 AND SWAP1 DUP2 SWAP1 SUB PUSH2 0x17F JUMPI PUSH1 0x0 PUSH1 0x40 DUP1 MLOAD PUSH2 0x1067 DUP2 PUSH2 0x126A JUMP JUMPDEST DUP3 DUP2 MSTORE DUP3 PUSH1 0x20 DUP3 ADD MSTORE ADD MSTORE PUSH1 0x0 MSTORE PUSH1 0x2 PUSH1 0x20 MSTORE PUSH1 0x60 PUSH1 0x40 PUSH1 0x0 KECCAK256 PUSH1 0x40 MLOAD PUSH2 0x108D DUP2 PUSH2 0x126A JUMP JUMPDEST PUSH1 0xFF DUP3 SLOAD AND SWAP2 PUSH2 0x109C DUP4 PUSH2 0x1219 JUMP JUMPDEST DUP3 DUP3 MSTORE PUSH1 0x40 PUSH1 0xFF PUSH1 0x2 PUSH1 0x1 DUP5 ADD SLOAD SWAP4 PUSH1 0x20 DUP7 ADD SWAP5 DUP6 MSTORE ADD SLOAD AND SWAP3 ADD SWAP2 ISZERO ISZERO DUP3 MSTORE PUSH1 0x40 MLOAD SWAP3 PUSH2 0x10C9 DUP2 PUSH2 0x1219 JUMP JUMPDEST DUP4 MSTORE MLOAD PUSH1 0x20 DUP4 ADD MSTORE MLOAD ISZERO ISZERO PUSH1 0x40 DUP3 ADD MSTORE RETURN JUMPDEST CALLVALUE PUSH2 0x17F JUMPI PUSH1 0x0 CALLDATASIZE PUSH1 0x3 NOT ADD SLT PUSH2 0x17F JUMPI PUSH1 0x9 SLOAD PUSH1 0xA SLOAD PUSH1 0xB SLOAD PUSH1 0x40 DUP1 MLOAD SWAP4 DUP5 MSTORE PUSH1 0x20 DUP5 ADD SWAP3 SWAP1 SWAP3 MSTORE SWAP1 DUP3 ADD MSTORE PUSH1 0x60 SWAP1 RETURN JUMPDEST CALLVALUE PUSH2 0x17F JUMPI PUSH1 0x20 DUP1 PUSH1 0x3 NOT CALLDATASIZE ADD SLT PUSH2 0x17F JUMPI PUSH1 0x4 CALLDATALOAD PUSH2 0x112B DUP4 PUSH2 0x1286 JUMP JUMPDEST PUSH2 0x640 DUP1 SWAP4 CALLDATASIZE SWAP1 CALLDATACOPY PUSH1 0x1 SWAP1 PUSH1 0x1 SLOAD DUP2 DUP2 GT ISZERO PUSH2 0x11DE JUMPI PUSH1 0x40 MLOAD SWAP2 PUSH2 0x114E DUP4 PUSH2 0x1286 JUMP JUMPDEST DUP6 CALLDATASIZE DUP5 CALLDATACOPY DUP4 PUSH1 0x0 JUMPDEST PUSH1 0x32 DUP2 LT PUSH2 0x1194 JUMPI JUMPDEST POP POP POP POP PUSH1 0x40 MLOAD SWAP3 DUP4 PUSH1 0x0 SWAP1 JUMPDEST PUSH1 0x32 DUP3 LT PUSH2 0x1178 JUMPI DUP7 DUP7 RETURN JUMPDEST DUP4 MLOAD PUSH1 0x1 PUSH1 0x1 PUSH1 0xA0 SHL SUB AND DUP2 MSTORE SWAP3 DUP3 ADD SWAP3 SWAP1 DUP5 ADD SWAP1 DUP3 ADD PUSH2 0x116C JUMP JUMPDEST PUSH2 0x119E DUP2 DUP5 PUSH2 0x12C5 JUMP JUMPDEST DUP5 GT ISZERO PUSH2 0x11D9 JUMPI PUSH2 0x11B7 PUSH2 0x11B2 DUP3 DUP6 PUSH2 0x12C5 JUMP JUMPDEST PUSH2 0x12D2 JUMP JUMPDEST SWAP1 SLOAD PUSH1 0x3 SWAP2 SWAP1 SWAP2 SHL SHR PUSH1 0x1 PUSH1 0x1 PUSH1 0xA0 SHL SUB AND PUSH1 0x5 DUP3 SWAP1 SHL DUP7 ADD MSTORE DUP6 SWAP2 ADD PUSH2 0x1156 JUMP JUMPDEST PUSH2 0x115F JUMP JUMPDEST PUSH1 0x40 MLOAD PUSH3 0x461BCD PUSH1 0xE5 SHL DUP2 MSTORE PUSH1 0x20 PUSH1 0x4 DUP3 ADD MSTORE PUSH1 0x13 PUSH1 0x24 DUP3 ADD MSTORE PUSH19 0x92DCECC2D8D2C840E6E8C2E4E840D2DCC8CAF PUSH1 0x6B SHL PUSH1 0x44 DUP3 ADD MSTORE PUSH1 0x64 SWAP1 REVERT JUMPDEST PUSH1 0x4 GT ISZERO PUSH2 0x1223 JUMPI JUMP JUMPDEST PUSH4 0x4E487B71 PUSH1 0xE0 SHL PUSH1 0x0 MSTORE PUSH1 0x21 PUSH1 0x4 MSTORE PUSH1 0x24 PUSH1 0x0 REVERT JUMPDEST SWAP2 DUP2 PUSH1 0x1F DUP5 ADD SLT ISZERO PUSH2 0x17F JUMPI DUP3 CALLDATALOAD SWAP2 PUSH8 0xFFFFFFFFFFFFFFFF DUP4 GT PUSH2 0x17F JUMPI PUSH1 0x20 DUP1 DUP6 ADD SWAP5 DUP5 PUSH1 0x5 SHL ADD ADD GT PUSH2 0x17F JUMPI JUMP JUMPDEST PUSH1 0x60 DUP2 ADD SWAP1 DUP2 LT PUSH8 0xFFFFFFFFFFFFFFFF DUP3 GT OR PUSH2 0xA8D JUMPI PUSH1 0x40 MSTORE JUMP JUMPDEST PUSH2 0x640 DUP2 ADD SWAP1 DUP2 LT PUSH8 0xFFFFFFFFFFFFFFFF DUP3 GT OR PUSH2 0xA8D JUMPI PUSH1 0x40 MSTORE JUMP JUMPDEST SWAP1 PUSH1 0x1F DUP1 NOT SWAP2 ADD AND DUP2 ADD SWAP1 DUP2 LT PUSH8 0xFFFFFFFFFFFFFFFF DUP3 GT OR PUSH2 0xA8D JUMPI PUSH1 0x40 MSTORE JUMP JUMPDEST SWAP2 SWAP1 DUP3 ADD DUP1 SWAP3 GT PUSH2 0x5B5 JUMPI JUMP JUMPDEST PUSH1 0x1 SLOAD DUP2 LT ISZERO PUSH2 0x1309 JUMPI PUSH1 0x1 PUSH1 0x0 MSTORE PUSH32 0xB10E2D527612073B26EECDFD717E6A320CF44B4AFAC2B0732D9FCBE2B7FA0CF6 ADD SWAP1 PUSH1 0x0 SWAP1 JUMP JUMPDEST PUSH4 0x4E487B71 PUSH1 0xE0 SHL PUSH1 0x0 MSTORE PUSH1 0x32 PUSH1 0x4 MSTORE PUSH1 0x24 PUSH1 0x0 REVERT JUMPDEST SWAP1 DUP2 PUSH1 0x20 SWAP2 SUB SLT PUSH2 0x17F JUMPI MLOAD DUP1 ISZERO ISZERO DUP2 SUB PUSH2 0x17F JUMPI SWAP1 JUMP JUMPDEST ISZERO PUSH2 0x133E JUMPI JUMP JUMPDEST PUSH1 0x40 MLOAD PUSH3 0x461BCD PUSH1 0xE5 SHL DUP2 MSTORE PUSH1 0x20 PUSH1 0x4 DUP3 ADD MSTORE PUSH1 0x16 PUSH1 0x24 DUP3 ADD MSTORE PUSH22 0x82E4E4C2F240E6D2F4CAE640DAEAE6E840DAC2E8C6D PUSH1 0x53 SHL PUSH1 0x44 DUP3 ADD MSTORE PUSH1 0x64 SWAP1 REVERT JUMPDEST SWAP2 SWAP1 DUP2 LT ISZERO PUSH2 0x1309 JUMPI PUSH1 0x5 SHL ADD SWAP1 JUMP JUMPDEST PUSH1 0x0 SLOAD PUSH1 0x1 PUSH1 0x1 PUSH1 0xA0 SHL SUB AND CALLER SUB PUSH2 0x13A0 JUMPI JUMP JUMPDEST PUSH1 0x40 MLOAD PUSH4 0x118CDAA7 PUSH1 0xE0 SHL DUP2 MSTORE CALLER PUSH1 0x4 DUP3 ADD MSTORE PUSH1 0x24 SWAP1 REVERT JUMPDEST PUSH1 0x0 DUP1 SLOAD PUSH1 0x1 PUSH1 0x1 PUSH1 0xA0 SHL SUB NOT DUP2 AND DUP3 SSTORE PUSH1 0x1 PUSH1 0x1 PUSH1 0xA0 SHL SUB AND PUSH32 0x8BE0079C531659141344CD1FD0A4F28419497F9722A3DAAFE3B4186F6B6457E0 DUP3 DUP1 LOG3 JUMP INVALID 0x24 0xD0 PUSH1 0xB9 0x1E BYTE 0xC6 0x21 DELEGATECALL 0x2C 0x2B DUP16 0xC9 SWAP13 0xD2 DUP1 SWAP9 PUSH0 PUSH20 0x6719885FBA2E00C0FC4D314AECA2646970667358 0x22 SLT KECCAK256 PC 0xEB 0xCF 0xEB CHAINID 0xA7 CODECOPY 0x4B 0xB8 0x22 PUSH29 0x92B9C185D6826EF5D1753580EC7D946F220302475664736F6C63430008 XOR STOP CALLER "
        },
        "methodIdentifiers": {
          "LOCK_CONTRACT()": "18830f55",
          "USDB_CONTRACT()": "7cba94e9",
          "WETH_CONTRACT()": "78a3b823",
          "depositor()": "c7c4ff46",
          "distribute(uint256,uint256)": "7625391a",
          "distribute_stage()": "d1d3f22c",
          "distribute_totals()": "61fe9ab8",
          "distributor()": "bfe10928",
          "fund(address)": "23024408",
          "getAccountList(uint256)": "007948b4",
          "getDistributeData(address)": "0ed62b7d",
          "owner()": "8da5cb5b",
          "populate(address[],uint8[],uint256[])": "3f31f2a8",
          "populate_totals()": "337bf881",
          "renounceOwnership()": "715018a6",
          "rescue()": "1fbe1979",
          "seal()": "3fb27b85",
          "sent_totals()": "08fb5adf",
          "transferOwnership(address)": "f2fde38b"
        }
      }
    }
  }
}